:020000040800F2
:10000000380A00204D020008592700087120000816
:100010005527000899040008652D0008000000001D
:10002000000000000000000000000000452800085B
:100030009D040008000000005D2700084928000812
:1000400067020008670200086702000867020008EC
:1000500067020008670200086702000867020008DC
:1000600067020008670200086702000867020008CC
:1000700067020008670200086702000867020008BC
:1000800067020008670200086702000867020008AC
:10009000670200086702000867020008670200089C
:1000A000670200086702000867020008670200088C
:1000B0006702000811290008670200088120000873
:1000C0007520000867020008670200086702000840
:1000D000670200086702000867020008670200085C
:1000E000670200086702000867020008670200084C
:1000F000670200086702000867020008670200083C
:10010000670200086702000867020008670200082B
:10011000670200086702000867020008670200081B
:10012000670200086702000867020008670200080B
:1001300067020008670200086702000867020008FB
:1001400067020008670200086702000867020008EB
:1001500067020008670200086702000867020008DB
:1001600067020008670200086702000867020008CB
:10017000670200086702000867020008000000002C
:1001800067020008670200086702000867020008AB
:10019000670200086702000867020008670200089B
:1001A00067020008670200086702000800F002F812
:1001B00000F03CF80AA090E8000C82448344AAF1C5
:1001C0000107DA4501D100F031F8AFF2090EBAE8C3
:1001D0000F0013F0010F18BFFB1A43F0010318477B
:1001E0004444000064440000103A24BF78C878C139
:1001F000FAD8520724BF30C830C144BF04680C602D
:10020000704700000023002400250026103A28BF74
:1002100078C1FBD8520728BF30C148BF0B60704778
:100220001FB504F0E5F91FBD10B510BD00F0FAF8D8
:100230001146FFF7F5FF02F097FD00F018F903B43F
:10024000FFF7F2FF03BC00F01FF9000009488047E8
:1002500009480047FEE7FEE7FEE7FEE7FEE7FEE7A8
:10026000FEE7FEE7FEE7FEE704480549054A064BC0
:1002700070470000F9280008AD010008380400208C
:10028000380A0020380600203806002053EA020C05
:1002900000F069802DE9F04B4FF00006002B1FBFE6
:1002A000B3FA83F503FA05F424FA05F65E4012BFAB
:1002B0001643B2FA82F502FA05F4C5F120051EBF15
:1002C00022FA05FC44EA0C04203556EA044C4FEAB5
:1002D000144418BF641C4FF000084FF0000990420E
:1002E00071EB030C39D3002919BFB1FA81F701FA78
:1002F00007F6B0FA80F700FA07F6C7F120071EBF2D
:1003000020FA07FC46EA0C062037B6FBF4FCA7EB04
:100310000507103F07F01F0BCBF120062CFA06F65D
:100320000CFA0BFB44BFB3460026202FA4BF5E4649
:100330004FF0000B5BEA060C08BF4FF0010B19EB06
:100340000B0948EB0608ABFB027C06FB02CC0BFB5F
:1003500003CCC01B71EB0C01C1E70B4602464146C2
:100360004846BDE8F08B13B5084318BF4FF0FF3087
:100370000146AFF30080BDE81C40704702F0FF0368
:1003800043EA032242EA024200F005B87047704790
:1003900070474FF000020429C0F0128010F0030CE7
:1003A00000F01B80CCF1040CBCF1020F18BF00F868
:1003B000012BA8BF20F8022BA1EB0C0100F00DB817
:1003C0005FEAC17C24BF00F8012B00F8012B48BF75
:1003D00000F8012B70474FF0000200B51346944619
:1003E0009646203922BFA0E80C50A0E80C50B1F18D
:1003F0002001BFF4F7AF090728BFA0E80C5048BFA1
:100400000CC05DF804EB890028BF40F8042B08BF3E
:10041000704748BF20F8022B11F0804F18BF00F83A
:10042000012B7047754600F02BF8AE460500694673
:10043000534620F00700854618B020B5FFF714FF9B
:10044000BDE820404FF000064FF000074FF00008D5
:100450004FF0000BAC46ACE8C009ACE8C009ACE812
:10046000C009ACE8C00921F007018D46704710B5FE
:100470000446AFF300802046BDE81040FFF7DFBE22
:10048000004870474000002001491820ABBEFEE73D
:100490002600020070470000FEE7000070470000E1
:1004A00090F83510022909D1052180F8351000682F
:1004B000016821F001010160002070478021416541
:1004C0000120704790F8350070470000B0B5044631
:1004D00000F0F0F8054640F23000C2F2000000786B
:1004E000611C18BF044400BF00F0E4F8401BA042A8
:1004F000FAD3B0BD2DE9F04F82B000F13E4242F296
:10050000004502F1FF77C4F202050A2243F6004ECD
:100510004FEAB726A84208BF0922C4F2010E092EED
:1005200038BF4FEAB7220125002600274FF0000808
:10053000009208E008F101080437B8F1100F06F145
:10054000020600F0A7800C6805FA08F914EA090F02
:10055000F0D0D1F804B003220BF0030CACF101048D
:10056000B240012C6FEA020A10D88268CC6802EA15
:100570000A02B440224382604268CBF3001422EAAC
:10058000090204FA08F42243426005E0BCF1030FBB
:1005900002D14FF0030C20E0C2688C6802EA0A0224
:1005A000B4402243BCF1020FC26016D16FF00302C7
:1005B00002EA58020244D2F820C007F01C050F23BB
:1005C0000C69AB402CEA030304FA05F52B431362D4
:1005D000D1F804B001250BF0030C02680CFA06F305
:1005E00002EA0A021A431BF4403F0260A2D0002232
:1005F00043F644030192C4F202031A684FF6084C12
:1006000042F480421A601A68CFF6FF7C02F48042FE
:100610000192019A28F00302724452F80C3007F05C
:100620000C050F24AC40A343009C04FA05F52B43B2
:1006300042F80C30DEF808204B6842EA090543F620
:100640000C4CDC0258BF22EA0905CEF80850C4F26F
:10065000010CDCF800209C0242EA090558BF22EA9E
:100660000905CCF80050DEF804209C0342EA090595
:1006700058BF22EA0905CEF80450DEF80020DB035B
:1006800042EA090558BF22EA0905CEF800500125C3
:1006900050E700BF02B0BDE8F08F000000690840DD
:1006A00018BF012070470000002A08BF09048161BB
:1006B0007047000040F23040C2F20000006870470E
:1006C00090F83D20202A1CBF02207047242280F889
:1006D0003D200268136823F001031360536A23F07E
:1006E00010035362536A19435162116841F00101CA
:1006F0001160202180F83D100020704790F83D20C7
:10070000202A1CBF02207047242280F83D20026866
:1007100089B2136823F001031360D2F824C04FF6A6
:10072000F07303EA0C0319435162116841F00101AF
:100730001160202180F83D100020704770470000B4
:1007400070470000F0B581B0044600680025476995
:10075000426894F83E1002F48076FA0505D5002E22
:100760001EBF6FF4807242610125BA0505D5002EC7
:100770001EBF02356FF4007242617A0516D5AEB124
:10078000628D94F83D30D4F830C0202908BF002A8B
:1007900024D06FF48062402905F10405426101D044
:1007A000102903D1016841F400710160380507D5B3
:1007B00036B1206808356FF40061416101E000BF87
:1007C00055B1206C40EA05012046216401B0BDE826
:1007D000F04001F0EDBC00BF01B0F0BD03F0F70147
:1007E000212909D0282B08BFBCF1210F04D06FF4B8
:1007F000806141610435D9E794F83D10E26AB2F1B5
:10080000080318BF0123203A18BF0122134208BF72
:1008100028291DD0212935D10021CFF6FF71E162B1
:1008200021212163202184F83D10002184F83E100D
:10083000416821F4E06141606FF4806141610168C9
:1008400021F480610160204600F038FCAEE700BF73
:100850000021CFF6FF71E162416821F4E06141605F
:100860006FF480614161016821F4806101600020C2
:100870002021206384F83D1084F83E00204600F0DB
:10088000C9FB93E76FF4806141618FE7F0B581B0F8
:10089000076804467868E26A94F83E3094F83DE0D0
:1008A000402B01D0102B27D1BE697D69E90751D1BA
:1008B000B2F12A4F00F0A082B2F52A0F00F09C821C
:1008C00000F400724FF0010C29078CEA522C45D538
:1008D000002A43D0606B616CC9B2396118B1C06B3A
:1008E000002840F02481A06B002800F08582C06BB6
:1008F000002840F01C817FE2216C00F40073002985
:100900000CBFBE6900267D69A90753D5002B51D0C5
:10091000206C002818BFBE6994F83D0000F0280044
:10092000282840F093807868002320F48060786065
:10093000012020EA960130064FF0180058BF0C2025
:10094000225A204684F83C3001B0BDE8F040FFF761
:10095000F7BE00BF810557D44FF0010CA90759D548
:10096000BCF1000F56D194F83E30E06A226B94F847
:100970003D10222940F0E280216D002908BF402B64
:1009800000F0DC80216D002940F032812169B1F551
:10099000404F40F02D810020009078690090B869A8
:1009A00000900098386840F480703860206D013005
:1009B0006BE200BFE90655D5002B53D094F83D50AB
:1009C000786820F4E06078600020009078690090FA
:1009D000386840F0010038600098386820F4806082
:1009E00038607868000540F1408105F0F700264640
:1009F000222840F0198156F8380F0168496826F816
:100A00000E1C36F80E1C17E1E06AB0F52A0F5FD114
:100A1000012062E07968720701F4006100F19880BA
:100A2000002940F0E981690605F0040140F1AC813C
:100A300010F4806000F0A881002940F0A5812046D4
:100A400001B0BDE8F04001F0EDBC00BF0020009017
:100A500079690091B9690091009984F83C0001B06E
:100A6000F0BD00BF0EF0F70100F48062212905F00F
:100A7000040040F08380290640F14881002A00F0FC
:100A80004581002840F0428194F83D00618D0029A5
:100A900000F0B281616A11F8012B3A616162618DE7
:100AA00001396185618D002908BF292840F0A481A2
:100AB0007868282120F48060786021202063204617
:100AC00084F83D1001B0BDE8F04000F0F7BA00BF77
:100AD000E06AB0F12A4F01D10820E06294F83E00AC
:100AE00040280BD1206D616C002801F0FE0018BF7A
:100AF00040F00100386101B0F0BD00BF2069B0F5E1
:100B0000804F65D194F83D00616C212801F0FE0111
:100B100018BF01313961606B08B1C06B38B9A06B87
:100B2000002800F06981C06B002800F065817868BA
:100B300040F40060786001B0F0BD00BF002000907C
:100B400078690090B8690090009801B0F0BD00BFCE
:100B5000002940F05181290605F0040140F120816F
:100B600010F4806000F01C81002940F019812046BB
:100B700001B0BDE8F04001F039BD00BF690640F1A9
:100B8000D780002A00F0D480002840F0D18094F86B
:100B90003D00618D002900F02F813969626A117072
:100BA000616A01316162618D01396185618D002960
:100BB00008BF2A2840F020812068416821F4806124
:100BC0004160222028212063204684F83D10D6E091
:100BD000206D002800F0BE80206D012840F00C81BF
:100BE000606C062101EAD010F130386101B0F0BD2F
:100BF000618D61B1618D012940F0E280202818BF2C
:100C0000082840F0FB80386820F4806038600020BD
:100C1000009078690090B86900900098386840F4B6
:100C20000070386030E100BF56F8340F0168496841
:100C300026F80A1C36F80A1C19B1216C41F004018F
:100C40002164796821F400617960FFF73BFC012899
:100C50000BD0306842F28D01C0F600010165FFF74C
:100C60001FFC10B13068016D8847608D60B120684D
:100C70004169490730D4416949063AD4608D18B1B9
:100C8000206C40F004002064206C28B1204601B0A4
:100C9000BDE8F04001F08CBA2A2D07D10020206376
:100CA000282084F83D00204600F006FA94F83D0024
:100CB000282857D10020CFF6FF70E06200212020C5
:100CC000216384F83D00204684F83E1001B0BDE861
:100CD000F04000F09FB900BF0069616A0870616A66
:100CE000206801316162618D013961854169490680
:100CF000C4D50069616A0870606A01306062608D05
:100D000001386085608D0028BAD1BDE7002818BF82
:100D1000002B71D0608D00286ED0606A10F8011B26
:100D200039616062608D0138608501B0F0BD00BF3F
:100D3000002818BF002B5FD0608D00285CD0386978
:100D4000616A0870606A01306062608D0138608598
:100D500052E000BF606C062101EAD010F03038612B
:100D600001B0F0BD206B222818BF222D44D10021F4
:100D70002020216384F83D00204684F83E1001B015
:100D8000BDE8F04000F098B9B1FA81F0400950EAAE
:100D90000C0031D1204601B0BDE8F04001F0CEBAE0
:100DA000B1FA81F0400950EA0C0025D1BEF1210FC3
:100DB0001AD1204601B0BDE8F04001F0D5BB00BF1C
:100DC000618D02290CD110283CD8012114228140C8
:100DD000C0F20102114235D04FF4806238E000BF0A
:100DE000396841F4806135E0402B05D1204601B0DF
:100DF000BDE8F04001F054BC01B0F0BD10F5803FFB
:100E00000CD1386820F480603860786800057FF580
:100E1000FEAE386820F4806038602EE0122A02D1DD
:100E200001287FF4F0AE1028F3D8012101FA00F078
:100E30001421C0F201010842EBD0386840F4806010
:100E400038601AE039684FF4006221F4806139603B
:100E5000396811433960796809050ED5421E1F2A89
:100E600016D80121914048F28102C8F200021142D5
:100E70000ED0786840F48050786000200090786947
:100E80000090B869009000980020206501B0F0BD86
:100E900010F5803FEDD0F0E77047000070B5B8B3B3
:100EA000044690F83D0028B9002084F83C00204614
:100EB00000F0BAF8242084F83D002068016821F091
:100EC00001010160016841F400410160016821F401
:100ED0000041016000F05EFA48F28041C0F21E015C
:100EE00040F60013D4F804E088424FF00001C0F24D
:100EF0003D0348F2A16C4FF0000238BF0121984237
:100F0000C0F2010C38BF0122E64538BF0A460AB1DB
:100F1000012070BD4DF68361C4F21B31A0FB0112AC
:100F20002168950C4B684FF4967623F03F0343EA13
:100F30009243754344F6D3564B60C1F262060B6A86
:100F4000A5FB0656B50923F03F03E64538BF950CCF
:100F50006A1C1A430A62CA6948F2A0664CF6FF731B
:100F6000C0F20106B64522EA03020BD801384FEA67
:100F70004E03B0FBF3F001306FF31F30042898BF2D
:100F800004201EE0A368013863B119230EFB03F3AC
:100F9000B0FBF3F001306FF31F3078B100F5804003
:100FA00008E000BF0EEB4E03B0FBF3F001306FF32F
:100FB0001F3028B100F5004003E000BF012000E031
:100FC00001201043C8610868D4E9072320F0C0005D
:100FD000104318430860886848F2FF3204F10C0699
:100FE00090434CCE18431043A5698860C86820F030
:100FF000FF0030432843C860086840F001000860E3
:1010000000202021206484F83D10206384F83E00F5
:1010100070BD00007047000070470000704700007E
:101020007047000070470000B0B586B0016845F217
:101030000040C4F20000814202D006B0B0BD00BF43
:10104000002543F630040195C4F20204216800F53E
:10105000D83041F002012160216801F002010191C4
:1010600001994FF4407101911221029101210391E4
:10107000032104910421059101A9FFF73BFA009592
:101080002069002140F4001020612069002200F452
:101090000010009000981F2000F090F81F2000F032
:1010A00079F820200021002200F088F8202000F0AC
:1010B00071F806B0B0BD0000704700007047000036
:1010C00040F2300040F23041C2F20000C2F20001B2
:1010D00000780A68104408607047000080B543F645
:1010E0000040C4F20200016841F40071016001682F
:1010F00041F480610160016841F480710160032066
:1011000000F088F8002000F005F800F027F8002033
:1011100080BD000070B540F23006C2F2000640F219
:1011200038013278C2F200014FF47A730968B3FBD8
:10113000F2F20446B1FBF2F1084600F0E9FC0F2C94
:101140004FF0010508D838B94FF0FF302146002292
:10115000002500F033F87460284670BD82B000208E
:1011600043F640010190C4F202014A6842F4804211
:101170004A604A6802F480420192019A009008682D
:1011800040F080500860086800F08050009000989F
:1011900002B07047002848BF7047C1B200F01F007E
:1011A000012202FA00F04EF20012CEF2000242EAF0
:1011B000D10121F0030108607047000010B54EF620
:1011C0000C5CCEF2000CDCF80030C3F3022E8EF083
:1011D0000704042C28BF0424BEF103034FF0FF3E94
:1011E0000EFA04F438BF0023A14399400EFA03F32A
:1011F0009A43114300F00F0200F160430901043AE1
:1012000003F564436244002848BF02F10C031970DF
:1012100010BD00004EF60C51CEF200010A684FF6E8
:10122000FF031A4060F30A2242F0806040F0FD7034
:10123000086070472DE9F041002800F08B8043F6EC
:101240000808C4F202080446D8F8F8030D4600F076
:101250000F00884207D288F8F853D8F8F80300F056
:101260000F00A84276D12068810717D5410705D520
:10127000D8F8001041F4E051C8F80010010705D576
:10128000D8F8001041F46041C8F80010D8F80010F8
:10129000A26821F0F0011143C8F80010C0073FD147
:1012A000D8F8F80300F00F00A84207D988F8F853DF
:1012B000D8F8F80300F00F00A8424BD1206841078E
:1012C00007D5D8F80010E26821F4E0511143C8F8BE
:1012D0000010000708D5D8F80000216920F460400C
:1012E00040EAC100C8F8000000F068F8D8F8001023
:1012F00044F20A62C1F30311C0F60002515C40F2ED
:10130000380220FA01F140F23400C2F20000006815
:10131000C2F200021160FFF7FDFE0020BDE8F0817F
:101320006068811E022907D258F8081C89015CBF39
:101330000120BDE8F08111E0012807D158F8081C10
:1013400089035CBF0120BDE8F08107E058F8081C64
:10135000890703D40120BDE8F08100BFD8F8001050
:1013600021F003010843C8F80000FFF7A3F906467F
:1013700041F28837D8F80000616800F00C00B0EB4B
:10138000810F8DD0FFF796F9801BB842F2D9032068
:10139000BDE8F08140F2380043F60801C2F20000D7
:1013A000C4F202010068096844F21A62C1F38221A2
:1013B000C0F60002515CC8407047000010B543F60B
:1013C0000404C4F20204606800F00C0142F2004020
:1013D0000829C0F2F40007D0042918BF10BD41F25B
:1013E0000020C0F27A0010BD216801F03F022168A0
:1013F00023684902C3F3881106D4A1FB000100232E
:10140000FEF744FF07E000BF41F20020C0F27A007F
:101410004843B0FBF2F021680222C1F3014102EB24
:101420004101B0FBF1F010BD2DE9F04182B0002880
:1014300068D00446007843F60006C007C4F20206EE
:101440000BD0B06800F00C00042840F09F8030689A
:10145000800302D56068002854D0207880071AD510
:10146000B06810F00C0F09D0B06800F00C0008282C
:1014700040F0A6807068400200F1A28030688007CA
:1014800002D5E06801283DD13068216920F0F800DC
:1014900040EAC10030602078000737D42078400748
:1014A0004CD4A56955B3B06800F00C00082840F092
:1014B000BB80012D26D07068E16900F480028A4269
:1014C00020D1216A00F03F028A421BD147F6C07149
:1014D000626A0140B1EB821F14D1A16A4FF6FF731B
:1014E000C903994300F44032A1F580318A4209D101
:1014F000E16A00F07060B0EB016F03D1002002B030
:10150000BDE8F081012002B0BDE8F08160690028EB
:1015100040F20000C4F2472076D00121C0F8801EBE
:10152000FFF7C8F8054600BF706F8007B6D4FFF715
:10153000C1F8401B0228F7D9DDE000BF306C10F085
:1015400080580AD100200190306C40F08050306407
:10155000306C00F080500190019847F20007C4F20F
:1015600000073868C00541D4386840F4807038609E
:10157000FFF7A0F8054600BF3868C00536D4FFF76E
:1015800099F8401B0228F7D9B5E000BFB06800F019
:101590000C00082803D1706840023FF558AF60681E
:1015A000B0F5803F07D0B0F5A02F40F08D803068B7
:1015B00040F480203060306840F4803030608DE04E
:1015C000E068002852D00020C4F2472001210160C9
:1015D000FFF770F8054600BF306880073FF554AF4D
:1015E000FFF768F8401B0228F6D984E0A0680128BC
:1015F00005D005284ED1306F40F004003067306FC1
:1016000040F0010030674FE00021C0F8801EFFF776
:1016100051F80546706F80077FF540AFFFF74AF835
:10162000401B0228F6D966E00027C4F247270020B5
:101630003866FFF73FF8022D05460BD13068800170
:101640005ED5FFF737F8401B02284FF00300F5D9AD
:1016500055E700BF306880017FF550AFFFF72AF8EB
:10166000401B02284FF00300F4D948E70020C4F2E1
:10167000472000210160FFF71DF80546306880070C
:101680007FF509AFFFF716F8401B02284FF0030063
:10169000F4D934E7316F002821F001013167316F4F
:1016A00021F0040131674DD0FFF704F8054641F2FF
:1016B000883700BF306F800756D4FEF7FBFF401B12
:1016C000B842F7D917E000BF3168002821F4803113
:1016D0003160316821F4802131604FD0FEF7EAFF9C
:1016E000054600BF306880033FF5B7AEFEF7E2FF66
:1016F000401B6428F6D9032002B0BDE8F08100BF8A
:1017000004F11C052FCD084340EA8210D9034FF69F
:10171000FF729143A1F5803140EA05600843706093
:1017200001203866FEF7C6FF044600BF306880011E
:101730003FF5E4AEFEF7BEFF001B02284FF00300AA
:10174000F4D9DCE6FEF7B6FF054641F2883700BF64
:10175000306F800708D5FEF7ADFF401BB8424FF051
:101760000300F5D9CBE600BFB8F1000F7FF499AEC6
:10177000306C20F08050306493E600BFFEF79AFF93
:10178000054600BF306880037FF567AEFEF792FF25
:10179000401B64284FF00300F4D9B0E670B538B1AF
:1017A0000446406A30B10020206104F1140007E0D3
:1017B000012070BD6068B0F5827F03D004F11C0089
:1017C000002101600026A66294F8510020B920464D
:1017D00084F8506000F03CF8022084F8510094E84E
:1017E0000F0001F48271056802F4044225F04005FF
:1017F0000560114403F400622369114403F00202FE
:101800006369114403F00102A369E569114403F41B
:101810000072114405F03802256A114405F0800277
:10182000A56A114305F4005211430160626A042164
:1018300001EA134102F0100211444160C16921F430
:101840000061C1610120666584F85100304670BDB9
:1018500080B586B0016843F20000C4F20100814205
:1018600002D006B080BD00BF002143F630020191D6
:10187000C4F20202536900F5504043F480535361AF
:10188000536903F480530193019B0191136843F062
:1018900001031360126802F001020192019AA02272
:1018A00001920222CDE90221032104910521059133
:1018B00001A9FEF71FFE06B080BD00002DE9F04330
:1018C00083B0044690F85000012803D1022003B0F1
:1018D000BDE8F0834FF001091D4616460F4684F817
:1018E0005090FEF7E7FE94F85110012944D180464C
:1018F000002F4FF0010018BF002E00F0D68003200B
:10190000002184F8510061652763A686E686A163FD
:10191000A187E187A0682164B0F5004F2068616469
:1019200007D1016821F040010160016841F4804164
:1019300001600168490603D4016841F0400101607B
:101940006168731EE268B1FA81F1B3FA83F3490961
:101950005B09B2F5006F41EA03013DD131B137F8BF
:10196000021BC1602763E08E0138E086E08E00280C
:101970006CD0681C0DD11EE0022096E0216B31F87E
:10198000022BC2602163E08E0138E086E08E0028E1
:101990005CD0206881688907F0D4FEF78BFEA0EB4D
:1019A0000800A842F2D303207FE000BFFEF782FECA
:1019B000E08E00284AD0206881688907F6D5216B1F
:1019C00031F8022BC2602163E08E0138E086E08EA0
:1019D0000028F0D13AE000BF39B139780173206BAB
:1019E00001302063E08E0138E086E08E70B3681C21
:1019F0000BD11BE0216B09780173206B0130206350
:101A0000E08E0138E086E08E00B3206881688907A7
:101A1000F0D4FEF74FFEA0EB0800A842F3D303205A
:101A200043E000BFFEF746FEE08E78B12068816893
:101A30008907F7D5216B09780173206B013020638A
:101A4000E08E0138E086E08E0028EFD140F23800C9
:101A5000C2F20000006849F68171C1F25E61A0FB2C
:101A60000101480D4FF47A71484302906068B0F567
:101A7000827F23D1204680212A46434600F070FE13
:101A800028B1606D40F02000606520206065A0688E
:101A900038B9002001902068C168019180680190E8
:101AA0000198606D002818BF0120002184F8519032
:101AB00084F8501003B0BDE8F08300BF02980028FE
:101AC000E5D0029801380290206880680006DED5D3
:101AD00002980028DBD002980138029020688068C4
:101AE0000006D4D502980028D1D00298013802907F
:101AF000206880680006CAD502980028C7D00298DE
:101B000001380290206880680006D7D4BFE7000043
:101B1000411E0020B0EB116F1CBF012070474EF238
:101B20001002CEF2000251604EF62351CEF20001B7
:101B3000F0230B7007219060116070477047000020
:101B40007047000010B590F83C20012A4FF00202C7
:101B500051D080F83D200268D2F804E0D2F808C0E5
:101B60000C682EF07003234341F2FF74C4F20004AA
:101B7000A24253600EDC40F2FF73C4F200039A42AB
:101B800016DCB2F1804F2BD040F20043C4F20003C8
:101B900024E000BF40F2FF33C4F201039A4213DC99
:101BA00041F60003C4F200039A4219D0002313E067
:101BB00040F60003C4F200039A4211D040F60043FD
:101BC000C4F200030AE000BF44F20003C4F20103C0
:101BD0009A4205D040F20043C4F201039A4204D174
:101BE00049682CF08003194391600121002280F89C
:101BF0003D1080F83C20104610BD0000002804BFB6
:101C00000120704710B5044690F83D0028B9002027
:101C100084F83C00204600F01FF8022084F83D00C4
:101C20002068211D01F000F8012084F8460084F8A6
:101C30003E0084F83F0084F8400084F8410084F8B6
:101C4000420084F8430084F8440084F8450084F896
:101C50003D00002010BD000080B582B0006840F259
:101C60000041C4F2000188421CBF02B080BD0020C8
:101C7000019043F64000C4F202000168002241F0E6
:101C8000020101600068002100F00200019001984B
:101C90001D20FFF793FA1D2002B0BDE88040FFF73A
:101CA00079BA000090F83D1001291CBF012070474F
:101CB000022180F83D10006841F2FF72C168C4F251
:101CC0000002904241F00101C1600DDC40F2FF7161
:101CD000C4F20001884215DCB0F1804F2AD040F2F6
:101CE0000041C4F2000123E040F2FF31C4F20101DF
:101CF000884213DC41F60001C4F20001884219D089
:101D0000002113E040F60001C4F20001884211D026
:101D100040F60041C4F200010AE000BF44F20001B5
:101D2000C4F20101884205D040F20041C4F2010131
:101D3000884206D1816801F00701062904BF00200E
:101D40007047016841F00101016000207047000008
:101D500080B590F83C20012A4FF0020200F0C280CA
:101D600080F83D20D0F800C04FF67772DCF80830DC
:101D700023EA0202CCF808200B684F2B28DC1F2B2B
:101D800044DD202B45D0302B43D0402B40F0AC809D
:101D9000D1F804E0C968DCF82030DCF8202022F01B
:101DA0000102CCF82020DCF8182022F0F00242EAF0
:101DB000011123F00A0242EA0E02CCF81810CCF806
:101DC0002020DCF8081041F0470121F0300180E0CC
:101DD0006F2B27DDB3F5005F48D0B3F5805F7AD075
:101DE000702B40F08180D1E901E3C968DCF808205C
:101DF00043EA0E0322F47F4243EA01211143CCF867
:101E00000810DCF8081041F0770162E00BB1102BEC
:101E10006AD1DCF8081021F07001194341F0070184
:101E200057E000BF502B35D0602B5DD1D1F804E0D6
:101E3000C968DCF8203023F01003CCF82030DCF83F
:101E40001830DCF8202023F4704322F0A00243EA8B
:101E5000013142EA0E12CCF81810CCF82020DCF840
:101E6000081041F0670121F0100132E0D1E901E3EF
:101E7000C968DCF8082043EA0E0322F47F4243EAF3
:101E800001211143CCF80810DCF8081041F480411E
:101E90001FE000BFD1F804E0C968DCF82030DCF8AE
:101EA000202022F00102CCF82020DCF8182022F0BB
:101EB000F00242EA011123F00A0242EA0E02CCF8D3
:101EC0001810CCF82020DCF8081041F0570121F060
:101ED0002001CCF808100022012180F83D100021DB
:101EE00080F83C10104680BD0122F5E770470000E5
:101EF00010B5016804460869800744BFC8685FEAF6
:101F0000807039D40869400744BFC8685FEA4070F0
:101F10003ED40869000744BFC8685FEA007045D432
:101F20000869C00644BFC8685FEAC0604AD408694F
:101F3000C0071CBFC8685FEAC07051D108690006BD
:101F400044BFC8685FEA006052D40869400644BFD5
:101F5000C8685FEA406053D40869800646BFC86815
:101F60005FEA806010BD6FF0200220460A61BDE884
:101F70001040FFF7E5BD00BF6FF0020008610120CF
:101F800020778869800743D02046FFF7AFFF45E000
:101F90006FF00400086102202077886910F4407F08
:101FA00040D02046FFF7A2FF42E000BF6FF00800DC
:101FB000086104202077C86980073DD02046FFF7DC
:101FC00095FF3FE06FF01000086108202077C86996
:101FD00010F4407F3AD02046FFF788FF3CE000BF76
:101FE0006FF001000861204600F03EF82168A5E787
:101FF0006FF0800008612046FFF7A0FD2168A4E78C
:102000006FF040000861204600F030F82168A3E737
:10201000204600F025F8204600F024F82168002032
:1020200020776FE7204600F01BF8204600F01AF8F2
:102030002168002020776CE7204600F011F8204648
:1020400000F010F821680020207769E7204600F0B2
:1020500007F8204600F006F821680020207766E7A0
:102060007047000070470000704700007047000094
:10207000FEE7000040F23810C2F20000FEF762BB3B
:1020800040F23810C2F20000FEF700BC10B581B07B
:1020900000210091806B40F23801C2F2000190F8FB
:1020A0003DC009684BF28952C908C1F2F842A1FB50
:1020B0000212110A232251430091009911B3009991
:1020C000013900910168096889051FD50099C9B1D6
:1020D00000990139009101680968890516D50099B0
:1020E00081B10099013900910168096889050DD510
:1020F000009939B100990139009101680968890591
:10210000DBD403E0016C41F020010164446B4FF02B
:10211000000E002C1CBF0021E163816B00291CBF55
:102120000022CA630268002C136823F480631360E2
:10213000A0F82AE018BFC4F850E000291CBF002313
:102140000B65116821F00101116090F83D106029C4
:102150000CD1202180F83D10002180F83E10016450
:1021600001B0BDE81040FEF7E9BA00BF0CF028014D
:10217000282911D1116841F001011160116841F461
:102180008061116000210163282180F83D1001B0B9
:10219000BDE81040FEF780BE202180F83D100021F0
:1021A00080F83E1001B0BDE81040FEF775BE00009B
:1021B00010B5044690F83D1090F83E00B0F11002C2
:1021C00018BF0122403818BF0120024208BF22294F
:1021D00034D001F0280028283AD10020206328209C
:1021E00084F83D0020684168090542D5416821F422
:1021F00000614160606B90F83510012958D1A06BE7
:1022000042F28D01C0F600010165FEF749F9002890
:1022100061D020684169490606D50069616A087085
:10222000616A206801316162016821F00101016089
:10223000202084F83D00A06B4BE000BF20680268BE
:1022400022F4006202604268120505D50CE000BF6E
:1022500020684268120507D4602905D0202184F83F
:102260003D10002184F83E100021216341680905DA
:10227000BCD494F83D10602950D1202184F83D1041
:10228000002121644169490606D50069616A087028
:10229000616A206801316162016821F00101016019
:1022A0002046FEF74BFA206C000717D11BE000BF59
:1022B00042F28D01C0F600010165FEF7F1F850B160
:1022C0002168606B0A6822F001020A60202184F80C
:1022D0003D10016D8847206C000704D020684168DC
:1022E00021F4E061416094F83D00216C490758BF3A
:1022F00010BD282810D10020CFF6FF70E062002129
:102300002020216384F83D00204684F83E10BDE87B
:102310001040FEF77FBE00BF10BD00BF41694906F7
:1023200005D50069616A0870606A01306062204604
:10233000FEF7B2FD206C0007D0D1D4E7C16A428D10
:10234000042A07D10168426A4B6823F480634B601A
:10235000096911E0428D032A16D1026802295368E7
:1023600023F48063536005D0042903D0116821F45D
:10237000806111601169426A1170416A01314162E4
:10238000418D013941857047428D022A12D10139B0
:102390000F2919D8DFE801F00812181218181818B8
:1023A000181818181818180801680A6822F48062AA
:1023B0000EE000BF0168426ACAE700BF01680A6810
:1023C00042F4806204E000BF01680A6842F40072CF
:1023D0000A600969426A1170416A02684B1C4362D3
:1023E000438D013B438512694A70416A026801319D
:1023F0004162418D01394185516821F4407151603C
:10240000202180F83D1090F83E200021402A80F8DD
:102410003E1003D10163FEF703BE00BF122101632A
:10242000FEF7FABD81B090F83D10222977D1418D99
:10243000042913D30168426A09691170416A0131A4
:102440004162418D01394185418D032967D1006881
:10245000416821F48061416001B07047C26A022A7C
:1024600058D0012956D80021009140F23801C2F21B
:10247000000109684BF28952C908C1F2F842A1FB78
:102480000212110A01EB81010091009901390091BA
:102490000099002946D001680A6892051AD500996A
:1024A000013900910099E9B301680A68920511D5D4
:1024B0000099013900910099A1B301680A68920559
:1024C00008D5009901390091009959B301680A684B
:1024D0009205DAD40A6822F480620A604A6822F41B
:1024E000E0624A600969426A1170416A01314162E1
:1024F000418D01394185202180F83D1090F83E2022
:102500000021402A80F83E1028D1016301B0FEF777
:1025100087BD00BF0068416821F48061416001B05F
:10252000704700BF016C41F0200101640168426AFC
:102530004B6823F4E0634B6009691170416A013113
:102540004162418D01394185202180F83D100021F3
:1025500080F83E1001B0FEF79FBC00BF122101635E
:1025600001B0FEF759BD0000C16A90F83D20212A54
:1025700018BF7047428D4AB1416A026811F8013BA9
:1025800013614162418D01394185704711F5803FEA
:1025900018BF082918D101684A6822F4E0624A602D
:1025A0000A6842F400720A6000212022016380F868
:1025B0003D2090F83E2080F83E10402A08BFFEF7EC
:1025C00031BDFEF72BBD00BF2029E4D001684A6869
:1025D00022F4E0624A6011210163002180F83E107C
:1025E000202180F83D10FEF719BD000090F83D1045
:1025F00090F83EC0C26A038D002B08BF212919D074
:10260000212905D0BCF1400F08BF222900D0704716
:10261000418D69B390F83E10402908BF00F040B8E2
:10262000416A026811F8013B13614162418D013931
:102630004185704712F5803F18BF082A1ED10168F6
:102640004A6822F4E0624A600A6842F400720A6052
:1026500000212022016380F83D2090F83E2080F880
:102660003E10402A08BFFEF7DDBCFEF7D7BC00BF16
:102670000068416821F4806141607047202ADED003
:1026800001684A6822F4E0624A6011210163002176
:1026900080F83E10202180F83D10FEF7BFBC0000FE
:1026A00090F83D10026D5AB1026D012A14D10168F3
:1026B000826CD2B20A61016D01310165704700BFC1
:1026C000C26C816C012A17D10268C9B21161016D17
:1026D00002310165704700BF026D022A18BF7047C2
:1026E000222911D101680A6842F480720A60016DE2
:1026F00001310165704700BF0268C1F30721116114
:10270000016D0131016512E0428D5AB1212909D1D3
:10271000416A026811F8013B13614162418D013940
:1027200041857047428D002A08BF212900D070479B
:1027300001684A6822F4E0624A600A6842F4007262
:102740000A6000212022016380F83D2080F83E10BD
:10275000FEF768BCFEE70000FEE7000070470000DF
:102760002DE9F04182B01E4690460D460446FDF725
:10277000A1FF301A00EB0807FDF79CFF40F238017B
:10278000C2F200010968C1F3CB317943019121689C
:102790008A682A40AA4227D1064618F101001FD0B4
:1027A000FDF788FF801BB84222D2019801990028CA
:1027B000A1F1010101912168896808BF074601EA7A
:1027C0000500A842ECD00FE088682840A8420BD151
:1027D00088682840A84207D188682840A84203D1C9
:1027E00088682840A842EFD0002002B0BDE8F08100
:1027F000D4E900014268B1F5827F22F0E002426034
:102800000AD1A168B1F5004F02D0B1F5806F03D1B4
:10281000016821F040010160A16AB1F5005F07D1B4
:10282000016821F400510160016841F40051016028
:10283000012084F85100002084F85000032002B0E9
:10284000BDE8F08170470000FEF73ABCB0B592B029
:10285000002443F64000CDE90A44CDE9084405943C
:10286000CDE90344CDE901440094C4F202000168BB
:10287000012241F0805101600068022500F0805083
:102880000090009847F200000094C4F20000016834
:1028900062F38F310160006800F4404000900098BE
:1028A0004FF4803007904FF480000D9008200E9078
:1028B000C820CDE90F050420119006A806920C95BA
:1028C000FEF7B2FD20B1EFF3108072B6FEE700BF55
:1028D0000F20CDE901054FF4A050CDE9040001A877
:1028E00003210394FEF7A6FC20B1EFF3108072B62B
:1028F000FEE700BF12B0B0BD4EF68850CEF2000029
:10290000016841F4700101607047000000000000A0
:102910002DE9F04F81B02DED068B84B040F2E4102C
:1029200040F60004C2F20000C4F20204FFF7E0FA2D
:1029300040F2A008C2F2000898F800004FF40051DD
:10294000013088F800002046FDF7A8FEC0B198F8D5
:102950000100A8B9D8E902010122084388F8012042
:1029600030D040F20000C2F2000090ED080B98ED6C
:10297000061B51EC100B53EC112B01F0A1F81DE0DC
:1029800020464FF40051FDF789FED8B998F80100B0
:10299000C0B1D8E902010022084388F8012011D013
:1029A00040F20000C2F2000090ED080B98ED061B0B
:1029B00053EC102B51EC110B01F002FD41EC100B0C
:1029C00088ED060B98F800001428C0F01481D8E9AF
:1029D000022152EA0100CDE9022171D098ED100BDD
:1029E0009FED8B1B98ED0C8B98ED14AB54EC115BA9
:1029F00056EC107B98ED069B384631462A46234616
:102A000088ED0A8B88ED0E0B88ED12AB01F04AFBC6
:102A100053EC182B01F054F841EC180B0190894647
:102A200051EC1A0B2A46234688ED0C8B01F03AFB39
:102A30003A46334601F044F8044641EC100B40F2AC
:102A40000000C2F2000090ED021B90ED062B56EC48
:102A5000117B0D4690ED04AB51EC120B3A46334618
:102A600088ED100B01F0E0F882468B4651EC1A0B12
:102A70003A46334601F0D8F802460B46204629462E
:102A800001F010FB04460D4653EC192B50465946F5
:102A900001F008FB22462B4601F092FC9FED5E0BF5
:102AA00004460D4651EC100B3A46334601F0BCF893
:102AB000019A4B4601F0F6FA22462B4648E000BF49
:102AC00040F20000C2F2000090ED020B90ED061BF8
:102AD00098ED088B90ED0A9B54EC105B90ED04ABE5
:102AE00051EC110B2A46234688ED0C8B88ED108B98
:102AF00088ED069B01F098F80190894651EC1A0B7D
:102B00002A46234601F090F85AEC18BB02460B46C1
:102B10005846514601F0C6FA064601980F4653EC56
:102B2000192B494601F0BEFA32463B4601F048FCFB
:102B30009FED390B0646894651EC100B2A46234679
:102B400001F072F85A46534601F0ACFA32464B4651
:102B500000F0B6FF41EC100B029A4FF0000940F272
:102B60002C47039988ED140B88F80090C2F20007F7
:102B7000501C3C78B0EE480A41F10001F0EE680AC2
:102B8000C8E90140C8F80C1000F02AFF9FED221B95
:102B900055EC106B53EC112B3046294601F00CFD1F
:102BA00090B19FED1F0B304653EC102B294601F0DE
:102BB00018FD78B13046294601F0CCF93870002074
:102BC00088F802000BE000BF012088F8020087F8B7
:102BD000009004E0012088F802000F203870387857
:102BE00040F22C2240F20003C2F20002C2F20003C3
:102BF000214600F0E5FBD8E90401053041F1000170
:102C0000C8E9040104B0BDEC068B01B0BDE8F08F4B
:102C10009A9999999999B93F000000000000F0BF76
:102C2000000000000000304010B540F6FF3E036891
:102C3000C4F2000E40F2004C7045C4F2010C27DCD7
:102C4000B0F1804F31D040F20042C4F20002904215
:102C50002BD040F60002C4F20002904225D041F68B
:102C6000FF72C4F20002904229DC70453CDCB0F1F6
:102C7000804F5FD040F20042C4F20002904259D02F
:102C800040F60002C4F20002904253D056E000BF6A
:102C900040F60042C4F20002904206D0604504D0E3
:102CA0000022C4F201029042D9D14A6823F0700395
:102CB000134341F6FF72C4F200029042D5DD43F6A1
:102CC000FF72C4F20102904222DC42F20002C4F21E
:102CD000000290422ED00022C4F20102904229D07C
:102CE000604527D02AE000BF40F60042C4F200024F
:102CF00090421FD041F60002C4F20002904219D067
:102D000041F60042C4F20002904213D016E000BF28
:102D100044F20002C4F2010290420BD044F60002D9
:102D2000C4F20102904205D044F20042C4F2010212
:102D3000904203D1CA6823F44073134323F0800206
:102D40004B69D1F800E08C681A430260C46240F419
:102D50008062C0F828E0624504BF0969016301216F
:102D6000416110BDFEE7000088B041F60007C4F2E3
:102D70000207FEF7B3F9FFF769FD002643F63000BE
:102D8000CDE904660696C4F202000168A7F5A058D2
:102D900041F0040101600168002201F00401069184
:102DA00006990696016841F080010160016801F012
:102DB0008001069106990696016841F001010160C3
:102DC000016801F00101069106990696016841F03B
:102DD00002010160016801F0020106910699069660
:102DE000016841F020010160016801F020010691B5
:102DF00006990696016841F008010160016801F03A
:102E00000801069106990696016841F040010160AB
:102E1000006844F2810100F04000069006984046A8
:102E2000FDF742FCA7F5806948464FF44051002267
:102E3000FDF73AFCA7F5406A50464FF400410022E6
:102E4000FDF732FC38464FF410710022FDF72CFCE0
:102E50004FF40050A7F5805401ADCDE9010620469E
:102E600029460396FDF746FB322001900220CDE96A
:102E70000206032004900B200590204629464FF0BF
:102E80000B0BFDF737FB062001900220CDE902066F
:102E90000320A7F5C054CDE9040B20462946FDF7D1
:102EA00029FB44F2810001904FF0010B4046294676
:102EB000CDE902B60496FDF71DFB4FF44050CDE975
:102EC000010B48462946CDE90366FDF713FB4FF495
:102ED00000500190022002900B20032705904046ED
:102EE00029464FF0020903960497FDF703FB4FF4C0
:102EF0004070CDE901090720059050462946CDE9EB
:102F000003674FF00308FDF7F5FA4FF40040CDE9F1
:102F1000010B50462946CDE90366FDF7EBFA41F671
:102F200000074FF41070C4F20207CDE9010B3846D8
:102F30002946CDE90366FDF7DDFA8020CDE90106DB
:102F4000384629460396BA46FDF7D4FA4FF4E850BE
:102F5000019002274FF00A0920462946CDE9027662
:102F6000CDF810804FF0030BCDF81490FDF7C2FAA6
:102F70004FF4007820462946CDE901860396544651
:102F8000FDF7B8FA4FF42050CDE901070B2005906A
:102F900050462946CDE9036BFDF7ACFA40F28C10A0
:102FA000AAF56841C2F200004FF4827280E8460040
:102FB000C0E90366C0E90568C0E90766C0E90966BB
:102FC000C0F82C90FEF7EAFB20B1EFF3108072B648
:102FD000FEE700BF40F2E410A4F50531C2F20000A4
:102FE00063230496CDE90266CDE9066640F6C31276
:102FF00080E84600C0E903368661FEF7FFFD28B190
:10300000EFF3108072B600BFFEE700BF4FF48050B0
:10301000019040F2E410C2F2000001A9FEF798FE10
:1030200020B1EFF3108072B6FEE700BF40F2E4106B
:10303000C2F2000006A9FEF785FD28B1EFF310806B
:1030400072B600BFFEE700BF40F23810A4F5E231CF
:10305000C2F2000048F2A06200234FF48047C0F2A1
:10306000010280E80E00C0E90337C0E90533C0E97A
:103070000733FDF713FF28B1EFF3108072B600BFDE
:10308000FEE700BF40F23810C2F200000021FDF759
:1030900017FB28B1EFF3108072B600BFFEE700BF48
:1030A00040F23810C2F200000021FDF727FB28B1E2
:1030B000EFF3108072B600BFFEE700BF40F2E410ED
:1030C000C2F20000FEF7EEFD20464FF4007101222F
:1030D000FDF7EAFA40F22C2440F2F805C2F20004AF
:1030E000C2F200052046294600F06CFB284600F09D
:1030F00001F8F7E72DE9F04F81B041F20045C4F245
:10310000020540F28C1781460024A5F50068C2F242
:1031100000074FF0000A4FF0000B33E128464FF450
:1031200000510122FDF7C0FA09EB0406384631468A
:1031300001220223FEF7C2FB28464FF40051002271
:10314000FDF7B2FA28464FF400510122FDF7ACFA20
:10315000711C384601220223FEF7B0FB28464FF4CB
:1031600000510022FDF7A0FA28464FF40051012239
:10317000FDF79AFAB11C384601220223FEF79EFBA6
:1031800028464FF400510022FDF78EFA28464FF4EE
:1031900000510122FDF788FAF11C38460122022372
:1031A000FEF78CFB28464FF400510022FDF77CFA15
:1031B00028464FF400510122FDF776FA311D3846BA
:1031C00001220223FEF77AFB28464FF40051002229
:1031D000FDF76AFA28464FF400510122FDF764FA20
:1031E000711D384601220223FEF768FB28464FF482
:1031F00000510022FDF758FA28464FF400510122F1
:10320000FDF752FAB11D384601220223FEF756FBA4
:1032100028464FF400510022FDF746FA28464FF4A5
:1032200000510122FDF740FAF11D38460122022328
:10323000FEF744FB28464FF400510022FDF734FA14
:1032400028464FF400510122FDF72EFA06F108013D
:10325000384601220223FEF731FB28464FF4005185
:103260000022FDF721FA28464FF400510122FDF714
:103270001BFA06F10901384601220223FEF71EFB64
:1032800028464FF400510022FDF70EFA28464FF46D
:1032900000510122FDF708FA06F10A013846012221
:1032A0000223FEF70BFB28464FF400510022FDF7E6
:1032B000FBF928464FF400510122FDF7F5F906F11C
:1032C0000B01384601220223FEF7F8FA28464FF494
:1032D00000510022FDF7E8F928464FF40051012281
:1032E000FDF7E2F906F10C01384601220223FEF750
:1032F000E5FA28464FF400510022FDF7D5F928469B
:103300004FF400510122FDF7CFF906F10D013846C7
:1033100001220223FEF7D2FA28464FF40051002280
:10332000FDF7C2F928464FF400510122FDF7BCF920
:1033300006F10E01384601220223FEF7BFFA2846A5
:103340004FF400510022FDF7AFF928464FF4005129
:103350000122FDF7A9F906F10F01384601220223E7
:10336000FEF7ACFA28464FF400510022FDF79CF915
:103370000120FDF7ABF810340BF1010B402C0AF1E2
:10338000080A19D01BF0FC0F7FF4C8AE4FF00110F3
:1033900020FA0AF040F2011121FA0AF6C2B22846D8
:1033A0004FF48051FDF780F9F2B240464FF40041EE
:1033B000FDF77AF9B2E600BF01B0BDE8F08F00007A
:1033C0002DE9F04193F9006040F2A00C1E2EC2F2EC
:1033D000000C00F388800136F5B21F2D1E7040F0FE
:1033E0006D81884247DD441A661C16F0030E0D46B7
:1033F00021D093F9005002EB41163544012605F81F
:10340000016CBEF1010F01F1010514D093F90070B8
:1034100002EB45153D4405F8016CBEF1020F01F1C8
:10342000020508D093F9007002EB451637440126D7
:10343000CD1C07F8016C032C1DD3471B02EB451470
:1034400007F1010E5F34012593F90060BEF1040E0F
:10345000264406F8605C93F90060264406F8405C58
:1034600093F90060264406F8205C93F90060A555A6
:1034700004F18004E8D1884227DA02EB4117A7F172
:1034800021044FF0010E0D4693F900608542264459
:1034900086F820E019DD93F90060013D854204F8CB
:1034A00006E012DD93F90060013D2644854206F8EE
:1034B00020EC0ADD93F90060264406F840EC6E1E0D
:1034C000803C8642A5F10205DEDC9CF802702FB933
:1034D00093F9007002EB40160125F55593F9007041
:1034E0001F2FC0F2EB804FF0000E02EB0E04657848
:1034F000BEF11E0F00F0858002F80E5094F82150A6
:1035000094F8416084F8205094F8A15084F8406009
:1035100084F8A05094F8C15094F8E16084F8C05049
:1035200084F8E06094F8015194F8216184F8005126
:1035300084F8206194F8415194F8616184F8405115
:1035400084F8606194F8815194F8A16184F8805105
:1035500084F8A06194F8C15194F8E16184F8C051F5
:1035600084F8E061A57894F82260657084F82160A1
:1035700094F8825094F8A26094F8818084F8815085
:1035800084F8A16094F8025194F8226194F8617073
:1035900084F8015184F8216194F8425194F86261F1
:1035A00084F8607084F8808094F8427094F86280A7
:1035B00084F8415184F8616194F8825194F8A261D1
:1035C00084F8417084F8618094F8C27094F8E280C5
:1035D00084F8815184F8A16194F8C25194F8E261B1
:1035E0000EF1020E84F8C17084F8E18084F8C151B4
:1035F00084F8E16102EB0E046578BEF11E0F7FF4E2
:103600007BAF92F83F70957782F83E7092F8BF706A
:1036100092F85F6082F8BE7092F8DF7092F87F5087
:1036200082F8DE7092F8FF7092F89FE082F8FE70E8
:1036300092F81F71002482F81E7192F83F71D477BE
:1036400082F83E7192F85F7182F83F4082F85E71B5
:1036500092F87F7182F85E6082F87E7192F89F71B5
:1036600082F85F4082F89E7192F8BF7182F87E50B6
:1036700082F8BE7192F8DF7182F87F4082F8DE71C5
:1036800092F8FF7182F89EE082F89F4082F8BF4076
:1036900082F8DF4082F8FF4082F81F4182F83F4104
:1036A00082F85F4182F87F4182F89F4182F8BF41F2
:1036B00082F8DF4182F8FE7182F8FF41884248DDDE
:1036C000441A671C17F0030E0D4621D093F90050E1
:1036D00002EB41163544012605F8016CBEF1010FDD
:1036E00001F1010514D093F9007002EB45153D443A
:1036F00005F8016CBEF1020F01F1020508D093F943
:10370000007002EB451637440126CD1C07F8016C0A
:10371000032C1ED3471B02EB451407F1010E5F3447
:10372000012500BF93F90060BEF1040E264406F89F
:10373000605C93F90060264406F8405C93F90060F1
:10374000264406F8205C93F90060A55504F1800436
:10375000E8D1884227DA02EB4117A7F121044FF0A4
:10376000010E00BF93F900508142254485F820E006
:1037700019DD93F900500139814204F805E012DDAA
:1037800093F9005001392544814205F820EC0ADD07
:1037900093F90050254405F840EC4D1E803C8542CD
:1037A000A1F10201DEDC9CF80210002918BFBDE87F
:1037B000F08193F9001002EB401001224254BDE861
:1037C000F08100002DE9F04F81B08A46814608461D
:1037D0004021FF22FCF7D2FD0AF1100B0AF1200173
:1037E0000AF1300200234FF0070C4FF0010E4FF0AA
:1037F0007C0803E00133202B00F0EE802CEA030567
:1038000019F803700EFA05F508EA5306012F6FEA5E
:10381000050743D009EB030595F82040012C48D05B
:1038200095F84040012C4DD095F86040012C50D0C7
:1038300095F88040012C53D095F8A00001285AD06B
:1038400095F8C000012861D095F8E000012866D005
:1038500095F8000101286BD095F82001012872D05D
:1038600095F8400101287AD095F86001012800F010
:10387000808095F88001012800F0858095F8A001EE
:10388000012800F08C8095F8C001012800F0938099
:1038900095F8E0010128ADD197E000BF1AF8065075
:1038A0003D400AF8065009EB030595F82040012C2D
:1038B000B6D11BF806403C400BF8064095F8404056
:1038C000012CB1D18C5D3C408C5595F86040012CA9
:1038D000AED1945D3C40945595F88040012CABD11D
:1038E00046F001041AF8040038400AF8040095F87C
:1038F000A0000128A4D146F001001BF800403C4084
:103900000BF8004095F8C00001289DD146F0010059
:103910000C5C3C400C5495F8E000012898D146F02E
:103920000100145C3C40145495F80001012893D127
:1039300046F002001AF800403C400AF8004095F8B2
:10394000200101288CD146F002001BF800403C40C9
:103950000BF8004095F8400101287FF485AF46F050
:1039600002000C5C3C400C5495F8600101287FF487
:1039700080AF46F00200145C3C40145495F880017E
:1039800001287FF47BAF46F003001AF800403C406A
:103990000AF8004095F8A00101287FF474AF46F0C2
:1039A00003001BF800403C400BF8004095F8C001B4
:1039B00001287FF46DAF46F003000C5C3C400C54D2
:1039C00095F8E00101287FF415AF46F00300145C80
:1039D0003C4014540EE700BF01B0BDE8F08F00007A
:1039E00010B52DED020B2DED088B84B09DED0C0B69
:1039F00051EC100B00F08AFC41EC180B9DED0C0B08
:103A000053EC182B51EC100B00F0DAFC41EC190BC5
:103A10000D989FED290B10F0004F53EC102B51EC3B
:103A2000190B9FED21AB9FED22BB0ED000F0FEFAEB
:103A30000ED953EC1B2B51EC190B00F031FC1CD2AE
:103A400014E000BF41EC180B17E000F0EFFA06D2CB
:103A500053EC1A2B51EC180B00F0B2FCF2E753ECCC
:103A60001B2B51EC190B00F01BFC06D853EC1A2B46
:103A700051EC180B00F024F8E4E78DED028B9DED7E
:103A80000C0B18EE901A10EE900A8DED000B61F3FE
:103A90001E0003909DED020B04B0BDEC088B02B03C
:103AA00010BD000000000000000000000000F03F1A
:103AB000000000000000E03F000000000000E0BF48
:103AC00010B591EA030F48BF83F0004300F18084F2
:103AD000841A71EB030C05D2121943EB0C03001B83
:103AE00061EB0C014FEA1154A4EB135CDFF81CE10D
:103AF0001EEA430F18BF9EEA445F00F0748021EA7B
:103B0000045123EA0E0343F48013DCF1200E32D378
:103B100022FA0CFE10EB0E0023FA0CFE41EB0E0114
:103B2000CCF1200E03FA0EFE10EB0E00CCF1200EAD
:103B300051F10001B1F5801F32D201EB045112FAAC
:103B40000EF2BDE8104058BF7047401C38BF5FEA16
:103B5000420218BF7047002814BF20F0010041F155
:103B600000014FEA410313F5001F38BF7047A1F170
:103B7000C04100F08FBB012A43EB0302ACF1200CE3
:103B8000DCF11F0E32BF4FF0000E23FA0CF310EBE6
:103B9000030041EB0451B4EB115FD0D0A1EB045111
:103BA00001F58011490801EB04515FEA30000ED3A2
:103BB00050F1000038BF12FA0EFE08D1BDE81040E7
:103BC000C9E7401C38BF5FEA4202CAD1C3E7BDE87B
:103BD00010404FEA410313F5001F38BF7047A1F1B1
:103BE000C04100F057BB9EEA445F08D011EA5E0F67
:103BF000BDE8104004BF01F0004100207047BDE85F
:103C0000104070B500F0F8FA64FBBE3E0000E0FF23
:103C1000491058BFC1F140415B1058BFC3F1404348
:103C20008B42EFF3008070472DE9C04130B4DFF8DC
:103C3000A4C23CEA111418BF3CEA131400F0ED8052
:103C40001CEA111481EA030544EAD57418BF1CEA82
:103C5000131500F0C880A4EB050404F17F7404F58B
:103C600000344FF0004545EAC12145EAC32341EA4B
:103C7000505143EA52534FEAC0204FEAC2229942C0
:103C800008BF904200F09D804FEA13650FF2441682
:103C9000765D4FEA134506FB05F7C7F1807706FB13
:103CA00007F74FEAD737A7FB03687642A7FB06CE94
:103CB000C8F5803838BFA8F1010807FB08E6A6FB65
:103CC000028C4FF0000EE6FB03CEDCF1000CCEF1CF
:103CD000004E38BFAEF1010EA6FB0C584FF00007A6
:103CE000E6FB0E87A1FB08C6A0FB07CE16EB0E066F
:103CF0004FF0000545F10005E1FB076515F1E04EC9
:103D00007EBFA4F580345FEA46066D4116F1800758
:103D100045F100054FEA172747EA05674FEA1525E1
:103D20004FEA0666A6F1DE46B6F1805F20D9384636
:103D300005EBC47124F0010C01EB0C11BCF1FE6F1A
:103D400002D8F0BCBDE8008124425CBF01F5801EB2
:103D50009EEAC47F02D4F0BCBDE80081244200F199
:103D60003980A1F1C041F0BCBDE8004100F092BA39
:103D70004FEAD02040EA41504FEAD1214FEAD22207
:103D800042EA43524FEAD323A7FB028607FB0366AE
:103D900005FB02661EEA0E0F58BFA6EB0056B6EBF7
:103DA00000564FEA520E4EEAC37E18EB0E0E56EB4B
:103DB000530EBCD518EB02085E417F1C55F100057F
:103DC000B5E74FF480154FF000074FF000064FF0B5
:103DD0000008ACE701F1C04101F000414FF00000E4
:103DE000F0BCBDE800810CEA131511EA0C1F00D0ED
:103DF0000CE013EA0C1F00F026804FF0000081EA6F
:103E0000030101F00041F0BCBDE80081F0BCBDE859
:103E1000004181EA030100F03DBAF0BCBDE8004179
:103E200070B500F0E9F900BF097EFC3E00F007B86C
:103E30004FF0000081EA030101F00041704781EA80
:103E4000030100F027BAF0BCBDE8004122494FF061
:103E500000007047FFFDFBF9F7F5F4F2F0EEEDEB33
:103E6000E9E8E6E4E3E1E0DEDDDBDAD8D7D5D4D378
:103E7000D1D0CFCDCCCBCAC8C7C6C5C4C2C1C0BFC4
:103E8000BEBDBCBBBAB9B8B7B6B5B4B3B2B1B0AFCA
:103E9000AEADACABAAA9A8A8A7A6A5A4A3A3A2A1AE
:103EA000A09F9F9E9D9C9C9B9A9999989797969569
:103EB00095949393929191908F8F8E8E8D8C8C8B05
:103EC0008B8A89898888878786858584848383828D
:103ED000828181800000FF070000F87F51EA030C17
:103EE00017D41CF5801F58BFBCF5801F00F1068059
:103EF000994218BF704708BF9042704707D711F525
:103F0000801F58BF13F5801F19D49942704789420A
:103F100070471CF5801F08D5BCF5801FF7D58B4274
:103F200018BF704708BF824270474FF4001C1CEB5B
:103F3000410F38BF1CEB430F01D28B42704770B565
:103F400000F05AF9922449004FF000514FF080538D
:103F5000FFF75EBE4FEA41034FEA5353A3F5806378
:103F6000D3F11E03C8BFD3F1210C0CDD4FF000428A
:103F700042EAC12242EA505232FA03FC8CEAE17C66
:103F8000ACEBE1707047102BC4BF0020704703F505
:103F9000787CBCF1FF3F04D06FF0004282EA210040
:103FA000704770B500F028F94992248000207047CE
:103FB000F2E7000051EA030C17D41CF5801F58BF2C
:103FC000BCF5801F00F10680994218BF704708BFFA
:103FD0009042704707D711F5801F58BF13F5801F17
:103FE00019D499427047894270471CF5801F08D543
:103FF000BCF5801FF7D58B4218BF704708BF8242BF
:1040000070474FF4001C1CEB410F38BF1CEB430FF3
:1040100001D28B42704770B500F0EEF8922449004F
:104020004FF080514FF00053FFF7F2BD51EA030CFF
:1040300017D41CF5801F58BFBCF5801F00F1068007
:10404000994218BF704708BF9042704707D711F5D3
:10405000801F58BF13F5801F19D4994270478942B9
:1040600070471CF5801F08D5BCF5801FF7D58B4223
:1040700018BF704708BF824270474FF4001C1CEB0A
:10408000410F38BF1CEB430F01D28B42704770B514
:1040900000F0B2F8922449004FF000514FF08053E5
:1040A000FFF7B6BD70B5DFF848C11CEA111E1EBF90
:1040B0001CEA13159EEA0C0F95EA0C0F00F06F80B6
:1040C00081EA03044EEAD47EAE4421EA4C1123EA8D
:1040D0004C1341F4801143F48013AEF17F7EA1FBB9
:1040E000024CA0FB0365361955EB0C05A1FB034CF4
:1040F0004CF10003A0FB021C16EB0C06654153F1CA
:104100000003094218BF46F0010613F4007F0BD1EB
:104110004FEA03314FEA053041EA155140EA1650A3
:1041200034036FF003020AE04FEAC3214FEAC520CF
:1041300041EA555140EA5650F4026FF0020202EB98
:104140002E4201EB025585EACE710AD05FEA440C9B
:1041500018BF24F0004450F1000041F1000120EAB2
:10416000D47040F2FE7C624500D270BDA84214BFFC
:104170004FF080444FF04044002E08BF0024BEF1B1
:10418000806FA8BFA1F1C041BDE8704080F282807D
:1041900001F1C04101F000414FF0000070470CEA0E
:1041A00013159EEA0C0F18BF95EA0C0F06D081EA92
:1041B000030E4FF000000EF0004170BD00F01CF83F
:1041C0008900013E00F007B800F009B84FEA430C3F
:1041D0005FEA5C5C08D081EA030100F05BB84FEA5B
:1041E000410C5FEA5C5CF6D102494FF00000704779
:1041F0000000FF070000F87F0EF1020E2EF0030E04
:104200005EF8046B364205D4012A43EB030515F52D
:10421000001F12D8012841EB010C1CF5001F0CD81F
:104220000ED14FEAD17C0CEB4C0C0CF1020C15F5C5
:10423000001F08BF4CEBD37C04E04FF0080C01E0FA
:104240004FEAD37C0CEB4C0526FA05F606F0070680
:10425000B6F1040C06D20EEB860CBDE870404CF0B3
:10426000010C6047DFE80CF0090B02024FF000413F
:10427000A1F500214FF0000070BD1946104601283D
:1042800051EB010418BFD4F5001484BF002001F0E5
:10429000004170BD0808A0F500114FEA31017047D8
:1042A00053EA010C17D41CF5801F58BFBCF5801FC2
:1042B00000F106808B4218BF704708BF82427047EA
:1042C00007D713F5801F58BF11F5801F19D48B42F3
:1042D00070479B4270471CF5801F08D5BCF5801FB6
:1042E000F7D5994218BF704708BF904270474FF406
:1042F000001C1CEB430F38BF1CEB410F01D299424D
:1043000070470FB40CBC03BCFFF7C1BE5FEA410CA1
:104310005FEA5C5CACF580635B1C39D4D3F134029A
:1043200040F34580B2F1200314DA4FF0010C0CFA8F
:1043300002FCACF10103034020EA0300B3EB5C0292
:1043400008BF10EA0C0F98BF704710EB0C0041F14A
:10435000000170470AD0C3F1200201FA02FC0128D3
:104360004CF1000021FA03F101FA03F14FF0010CC6
:104370000CFA03FCACF1010321EA0301B0F1004F98
:1043800008BF11EA0C0F4FF0000088BF614470476E
:10439000B3F1FF3F28BF50EAC12C01F000414FF0BC
:1043A000000084BF41F07C5141F470017047B3F5C7
:1043B000806FB8BF704770B5FFF71EFF40DBB6BE19
:1043C00010B591EA030F48BF83F000433FF580AB7F
:1043D000841A71EB030C07D28CF0004C121943EBDA
:1043E0000C03001B61EB0C014FEA1154A4EB135CAE
:1043F000DFF8A4E11EEA430F18BF9EEA445F00F015
:10440000B48021EA045123EA6E035242C3EB6E03E7
:1044100038BF5B1EDCF1200E25D322FA0CFE10EB18
:104420000E0043FA0CFE41EB0E01CCF1200E03FA14
:104430000EFE10EB0E00CCF1200E51F1000129D43C
:1044400001EB045112FA0EF2BDE8104058BF70475C
:10445000401C1CBFB2F1004F704700280CBF491C24
:1044600020F00100704712EB020E43EB030218BF6D
:104470004FF0010E4EEA4202ACF1200CDCF11E0EB0
:1044800056D943FA0CFE10EB0E00CCF11E0E51F182
:10449000FF31D5D50EF1010E12FA0EFE404141EB6F
:1044A000010101EB445C5FEA5C5C10D901EB045153
:1044B00010EBDE7038BFBEF1004FBDE8104018BFF2
:1044C000704700280CBF491C20F00100704734D20F
:1044D0004FEAD42C24F4006411F500111BD0B1FA7A
:1044E00081F20B3AA41AA41ED2F12003914030FAB3
:1044F00003F31943904001EBCC7101EB0451002C04
:10450000BDE81040A8BF704701F1C04101F0004173
:104510004FF000007047B0FA80F310FA03F102D1B7
:10452000BDE810407047E41A173C4805C90AE2E7A5
:1045300001EB0451BDE81040704749104FEA3000CC
:1045400001EB0451BDE8104002E04FF0000170475C
:104550004A0008BF0042F8D0B2F5001F28BF7047DC
:1045600001F000414FF0000070479EEA445F07D021
:1045700011EA5E0FBDE8104004BF00210020704723
:10458000BDE8104070B5FFF737FE00BF40DFF63ED4
:10459000104683F0004170470000E0FF10B5FFF7C0
:1045A0009DFC0CBF0120002010BD10B5FFF796FC4C
:1045B00014BF0120002010BD10B5FFF7FBFC8CBF1D
:1045C0000120002010BD10B5FFF7F4FC2CBF012026
:1045D000002010BD10B5FFF729FD94BF0120002079
:1045E00010BD10B5FFF722FD34BF0120002010BD23
:1045F000F1EE100A4FF6FF71C0F2C03120EA01005F
:1046000040F04070E1EE100A70470000000000002A
:10461000000001020304060708090000000001026F
:10462000030400004846000800000020400000008D
:10463000E80100088846000840000020F809000052
:104640000402000800000000FF000000000000005D
:104650000AD7A3703D0AB73F0AD7A3703D0AC73FE8
:104660000000000000001C40000000000000F0BF3F
:10467000000000000000F03F0100000010000000FA
:084680000024F400000000001A
:04000005080001AD41
:00000001FF
